:020000040800F2
:100000007015002079020008452800084D240008DA
:1000100041280008751C0008873100080000000016
:10002000000000000000000000000000252A000879
:10003000791C000800000000CD280008392B0008BA
:10004000930200089302000893020008930200083C
:10005000930200089302000893020008930200082C
:10006000930200089302000893020008930200081C
:10007000930200089302000893020008930200080C
:1000800093020008930200089302000893020008FC
:10009000930200089302000893020008112100084F
:1000A00093020008930200089302000893020008DC
:1000B00093020008930200089D2B00089302000899
:1000C00093020008930200089302000893020008BC
:1000D00093020008C12D0008492E0008C12E000817
:1000E000930200089302000893020008930200089C
:1000F000930200089302000893020008930200088C
:10010000930200089302000893020008930200087B
:10011000930200089302000893020008312C0008A3
:10012000930200089302000893020008930200085B
:1001300000F002F800F090F80AA090E8000C824469
:100140008344AAF10107DA4501D100F085F8AFF246
:10015000090EBAE80F0013F0010F18BFFB1A43F0A5
:1001600001031847E43C0000043D0000103A24BF9E
:1001700078C878C1FAD8520724BF30C830C144BF0C
:1001800004680C607047000000230024002500264E
:10019000103A28BF78C1FBD8520728BF30C148BFEA
:1001A0000B6070476E2900F01E83702900F0858176
:1001B000662903F0B384652903F0B084672903F04E
:1001C000AD84612903F0AC8403681B0A28BF41F0A9
:1001D0008001692900F0F680642900F0F380752918
:1001E00000F0F0806F2900F01784782900F0518129
:1001F000E92900F0B183E42900F0AE83F52900F08D
:10020000AB83EF2900F01484F82900F050810368D3
:10021000DB0928BF41F08001632900F020837329A6
:1002200000F02583E32900F0E787F32900F0EC874D
:10023000002070471FB501F03DF8040000200021A8
:1002400003F056FC401C60600020002103F03AFCE3
:10025000E0601FBD10B510BD00F0FEFF1146FFF7B6
:10026000E9FF03F073F901F0D7F803B4FFF7F2FFE9
:1002700003BC02F0A5FF0000094880470948004779
:10028000FEE7FEE7FEE7FEE7FEE7FEE7FEE7FEE746
:10029000FEE7FEE704480549054A064B70470000A3
:1002A0003D2B000831010008700F00207015002060
:1002B0007011002070110020704700001CB50C4622
:1002C000064B7B4469460090204600F0A6FA04469F
:1002D0000020694600F0B4FA20461CBD7B050000F2
:1002E0000FB4044910B503AA029800F0C5FA10BC77
:1002F0005DF814FB4C0000200FB41CB5084B06AA97
:100300007B4469460090059800F087FA0446002077
:10031000694600F095FA20461CBC5DF814FB00000D
:100320003D05000070B5044685690068C10601D529
:10033000302600E02026C00707D070BDD4E9012197
:1003400030469047206A401C20626D1EF6D570BD75
:1003500070B5044685690078C00707D170BDD4E93F
:10036000012120209047206A401C20626D1EF6D596
:1003700070BD70B50C460546012A05D02878800668
:1003800000D5EA69002302E0012305E05B1C9342EB
:1003900002D2E05C0028F9D1A869E618C01AA86169
:1003A000286A184428622846FFF7BCFF04E0D5E914
:1003B000012114F8010B9047B442F8D32846FFF707
:1003C000C7FF70BD2DE9F04106460024106875296D
:1003D000314616A510D000F09BF9002802DA404201
:1003E00013A507E031688A0701D512A502E0490785
:1003F00004D511A5012401E000F093F900210A229F
:1004000006F1240709E0B0FBF2FCB0FBF2F302FBBB
:100410001C00303078541846491C0028F3D123467C
:100420002A463046BDE8F04100F084B900000000E3
:100430002D0000002B00000020000000F0B40D464D
:100440000188090502D5214C7C4402E01F4C7C4404
:100450000E34002100F1240608E002F00F07120913
:10046000E75D42EA03721B097754491C52EA03070D
:10047000F3D102780023120704D5702D06D009B1FC
:10048000022311342246F0BC00F054B90123103489
:10049000F8E770B504460D462146106800F041F9B2
:1004A000024629462046BDE870400023C6E7D21D1B
:1004B00022F00703D3E90023C0E70368126843F082
:1004C000200303600823C3610023B7E7D836000088
:1004D0002DE9F05F894604464FF0000ADFF874B159
:1004E000FB44C0F820A02046E1688847002874D06B
:1004F000252806D0D4E901219047206A401C2062BB
:10050000F1E700265F462046E16888472028054637
:1005100007DB312D05D2781910F8200C08B10643FD
:10052000F1E7B00701D526F00406C4F81CA00027A7
:10053000C4F818A02A2D09D0284602F03AFE38B394
:1005400004EB8708303DC8F8185019E059F8041B2F
:10055000204604EB87029161E1688847012F054638
:1005600018D1E069002820DA26F020061DE0D8F82E
:10057000180000EB800005EB40003038C8F8180088
:100580002046E1688847054602F013FE0028EED1B8
:10059000012F0AD02E2D08D12046E16888477F1C04
:1005A0000546022F46F02006C4DBA069002803DAC6
:1005B000404246F00106A061F00701D026F0100687
:1005C0006C2D0BD0682D09D04C2D39D06A2D35D02B
:1005D000742D35D07A2D33D016E038E0E1682F46FF
:1005E00020468847B842054609D16C2F26D04FF4E3
:1005F0008060E168064320468847054604E06C2F8A
:100600001AD04FF4807006430DB3A5F141001928AC
:1006100002D8203546F400664A4629462046266020
:100620004E46FFF7BFFD80B101280BD0F61D26F026
:10063000070000F1080956E74020E4E78020D8E7EA
:100640000020D6E706F104094DE7284652E7206A64
:10065000BDE8F09F6836000030B505460B462A46D7
:1006600013F8014B12F8010B08B1A042F8D01CB1ED
:10067000002802D06D1CF1E7284630BD10B5431CA0
:1006800002E010F8011B71B18107FAD14FF001327D
:1006900002C88C1A8C4314EAC211F9D0C01A0A0697
:1006A00003D0C01E10BDC01A10BD0A0401D0801EA8
:1006B00010BD0902FCD0401E10BD4FF0000200B575
:1006C000134694469646203922BFA0E80C50A0E875
:1006D0000C50B1F12001BFF4F7AF090728BFA0E823
:1006E0000C5048BF0CC05DF804EB890028BF40F8EF
:1006F000042B08BF704748BF20F8022B11F0804F31
:1007000018BF00F8012B704770477047704770475B
:1007100009684A0501D540B27047C905FCD500B249
:10072000704709684A0501D5C0B27047C905FCD5B4
:1007300080B270472DE9F0470D469946924604462F
:1007400000F124080168880604D5E06921F0100151
:10075000216000E00120A84201DD471B00E00027E6
:10076000A1697A1902EB0900081AA0612078C00675
:1007700002D42046FFF7D6FD002608E0D4E9012187
:100780001AF806009047206A401C761C20624E45ED
:10079000F4DB2078C0060AD52046FFF7C3FD06E04B
:1007A000D4E9012130209047206A401C2062381E85
:1007B000A7F10107F4DC07E0D4E9012118F80500EE
:1007C0009047206A401C2062281EA5F10105F3DC39
:1007D0002046FFF7BDFD2078000602D50220BDE8C7
:1007E000F0870120FBE711680268006A530501D514
:1007F00008700AE0D30501D5088006E0130603D58A
:10080000C217C1E9000200E0086001207047000043
:1008100001694A1C02610878704700B58FB0CDE9C4
:1008200001310021059105497944CDE903101146B4
:100830006846FFF74DFE0FB000BD0000E5FFFFFF6B
:100840000A6802F8010B0A60704710B5436913B1DA
:10085000AFF3008001E0FFF78CFD012010BD12789E
:1008600000F124010A7000224A700122EDE71168AC
:100870004FF0FF32E9E70000074B70B50D467B44AF
:10088000FFF7CBFF0446284600F0C2FC10B14FF042
:10089000FF3070BD204670BD572B00002DE9FF5F73
:1008A00015468A460446DFF8AC80F8440027D8E9AC
:1008B00000103E46CDE9001010E03AF816106A46E6
:1008C00002A800F0A9FC411C07D02178890603D5B5
:1008D000E269391891420DD80744761C20788006C9
:1008E00002D5E069B84205DDAE42E6DB3AF8160013
:1008F0000028E2D1A069C01BA0612046FFF712FDCD
:10090000D8E90010CDE90010002017E03AF81810DF
:100910006A4602A800F080FCB0F1FF3F81460BD090
:1009200000250DF1080B05E0D4E901211BF80500B5
:1009300090476D1C4D45F7D308F10100B042804649
:10094000E4DB206A384420622046FFF701FDBDE861
:10095000FF9F0000B23200002DE9F0418046D21D19
:1009600022F007020025D2E90002F52915A614D0CD
:10097000011E72F1000106DA0023D0EB030063EBE5
:10098000020211A608E0D8F800108B0701D50FA6C7
:1009900002E0490701D50EA601251146002408F101
:1009A000240704E000F04EF830323A55641C50EA57
:1009B0000102F7D12B46324621464046BDE8F041C0
:1009C000FFF7B8BE000000002D0000002B00000063
:1009D0002000000030B4002100F1240408E002F0FF
:1009E0000705D208303542EA4372DB086554491CDA
:1009F00052EA0305F3D10468002310A2250708D5A5
:100A000004F020040C4304D0C46901230CA2641E2A
:100A1000C46130BCFFF78EBE10B504462146106895
:100A2000FFF77FFE02462046BDE810400023D1E7D5
:100A3000D21D22F00701D1E90023CBE7000000001E
:100A40003000000030B5B0F10A024FEA900E71F1AB
:100A500000034EEA817EB0EB0E0061EB91014FEA9C
:100A6000101E4EEA017E10EB0E0041EB11114FEA11
:100A7000102E4EEA016E10EB0E0041EB11214FEAF1
:100A8000104E4EEA014E10EB0E0041EB11414018A2
:100A900041F100014FEAD00040EA41704FEAD10134
:100AA00010EB80054FEA810444EA907444EB0104A2
:100AB0006D1944EB0404521BA3414FF0000348BFDF
:100AC0000A3200D530BD401C41F1000130BD7047F5
:100AD0002DE9FF4F0C461E464FF0FF378BB0D2E991
:100AE0000001DDF860800A908A46C1F30A5505B915
:100AF0003D46002108464FF00000BAF1000F00F417
:100B0000400005DA00EB80004FF4400101EA50009C
:100B10004FEA9059B9F1010F00DDB9460A9850EA41
:100B20004A000ED044F61050A5F2FF3545432F146D
:100B3000B8F1000F1ED07542291E1EDDC9F100025A
:100B40001CE0B8F1010F4FF0000001D0302103E0AC
:100B5000F24305E02154401CB042FBDB304600224A
:100B6000002121540B99C1F80880C1E900200FB081
:100B7000BDE8F08FBD1B6D1CDEE74A4600DA694216
:100B800006A800F0DBFB06AB93E8070003AB83E8A5
:100B9000070050460A9900F089FC8DE80700A0F58F
:100BA00000501F3800900398002D09DD42F21F010C
:100BB0004A46084403A90390684600F0E8FE08E0AE
:100BC000A0F500504A461F3803A90390684600F07C
:100BD000F2FE8DE807000004000C03D04FF0FF3058
:100BE000410800E01046B8F1000F03D00022009247
:100BF00015461EE0751E05D4FFF724FF30326255FE
:100C00006D1EF9D5B3460122084302D000227F1C95
:100C100004E02078302801D100227F1E002A0997A5
:100C200086D01DE0112D07DAFFF70CFF3032625538
:100C30006D1C50EA0102F5D1084302D00098C8B1FA
:100C40000EE00021681E05E0235C625C63542254C0
:100C5000401E491C8142F7DBAB46A81B401E099091
:100C6000002004F80B000B98099AC0F80880C0E92E
:100C7000002B7CE711264FF0000859E72DE9F04FD3
:100C800088460446D21D22F0070191B0D1E9000147
:100C9000CDE90A0102F079FA02460B98C00F01D0A3
:100CA0002D2007E02068810701D52B2002E02021BC
:100CB00001EAC000032A099001D0072A05DB034698
:100CC0004146204600F0FAFA0BE12078800601D573
:100CD000E06900E00620B8F1650F814606D0B8F162
:100CE000660F18D0B8F1670F70D131E00020B9F16C
:100CF000110F009001DB112301E009F101030AAAA1
:100D000001A90CA8FFF7E4FEDDE90C70002609F14B
:100D10000105834647E001204B4600904FF0004715
:100D20000AAA01A90CA8FFF7D3FEDDE90DB00C99C2
:100D30005D46002610B909F101000D18B9EB050058
:100D400003D4C0F1FF3609F10105A5EB09002BE042
:100D5000B9F1010F01DA4FF001090020B9F1110FCB
:100D60000090484601DD112300E003460AAA01A9CC
:100D70000CA8FFF7ADFEDDE90C704D46002683465A
:100D8000207800070AD4AB4500DA5D4601A8012DA2
:100D900004DD411911F8011C302907D04F4502DA52
:100DA00017F1040F04DA012082460FE06D1EEEE712
:100DB000002F02DCED1B3E4403E0781CA84200DD5E
:100DC0007D1CB81B00F1010A4FF000472078000796
:100DD00003D4AA4501DB4FF0FF3A0021B7F1004FE1
:100DE0000DF143088DF8431024D002202B23002F4F
:100DF00001DA7F422D230A21021EA0F1010000DC4E
:100E00005FB197FBF1FC97FBF1F201FB1C7C1746ED
:100E10000CF1300C08F801CDEEE7A8F101000370E9
:100E20002188090501D5452100E06521A0F10108CF
:100E300000F8011C09980FA9A1EB0807FF1D00B1DC
:100E40000120411901EBEA70A1693844081A401EDB
:100E5000A0612078C00602D42046FFF763FA099803
:100E600028B1D4E901219047206A401C20622078F3
:100E7000C00622D52046FFF755FA1EE0002E04DBFF
:100E8000B34502DD01A8805D00E03020D4E90121F6
:100E90009047206A401C2062761CAAF101005FEA9C
:100EA000000A0AD100F006FAC0680168405CD4E983
:100EB00001219047206A401C2062281EA5F10105EF
:100EC000DCDC07E0D4E9012118F8010B9047206A27
:100ED000401C2062381EA7F10107F3DC2046FFF713
:100EE00037FA032011B043E62DE9F04F04460D46D2
:100EF000D21D22F0070089B0D0E90092484617467B
:100F0000394602F042F90246F80F01D02D2307E0DE
:100F10002068810701D52B2302E0202101EAC003CC
:100F20008DF820300BB1012000E00020032A82461A
:100F300001D0072A04DB2946204600F0BFF93DE135
:100F40002078800601D40D2500E0E569C7F30A5634
:100F50000D2D49DA00214FEA175B08464FF00000DB
:100F6000002F00F4400007DA00EB80004FF440014E
:100F700000EBD07001EA60008115012901DD4FF01E
:100F8000FF3100224FEA850CBCF1180F06D313463F
:100F9000ACF118004FF08052C24003E04FF48013D0
:100FA00023FA0CF30CF10C0CBCF1200F04D3ACF1C0
:100FB000200C09FA0CF001E007FA0CF000294FF0C0
:100FC000004801DD18B90FE00ED140450CD319EBF4
:100FD00002095F4121B9404502D19F4329EA020934
:100FE000BBEB175F00D0761C2088000502D57B483C
:100FF000784402E079487844193808AA302302F886
:101000000A30037C0AF10101002E0AF1020A53544E
:101010006A4602DC4FF0300101E04FF031014FF041
:1010200001088DF8001002D0A6F2FF3603E059EA5D
:10103000470100D06A4E002D02DC2178090704D553
:101040004FF002082E218DF80110C44600210BE05C
:10105000C7F303433F01C35C491C6D1E02F808300F
:10106000052908F1010801DA002DF1DC00210CE06E
:1010700000EB1973491C1B786D1E082902F8083013
:101080004FEA091908F1010801DA002DF0DC217896
:10109000890602D514E0A8F10108E04505DD02EB60
:1010A000080111F8011C3029F5D0B8F1000F07DD57
:1010B00002EB080111F8011C2E2901D1A8F1010849
:1010C000002D05DD3E2102F808106D1E08F1010813
:1010D000407C002E02F8080008F1010804DA2D20F7
:1010E000764202F8080002E02B2002F808000A21EC
:1010F0004FF47A70864208F101080BDB96FBF0F39F
:10110000303302F8083096FBF0F308F1010800FBD9
:10111000136601E0642E0CDB642096FBF0F33033A1
:1011200002F8083096FBF0F308F1010800FB1366A3
:1011300001E00A2E06DB96FBF1F0303002F80800E1
:1011400008F1010896FBF1F001FB1060303002F865
:101150000800A16908F1010808EB050202EB0A008A
:10116000081AA0612078C00602D42046FFF7DAF8FA
:10117000216A08AE01EB0A00206204E0D4E90121F3
:1011800016F8010B9047BAF1010AF7D22078C00691
:1011900002D52046FFF7C6F86E4609E016F8010BA7
:1011A0003E280FD0D4E901219047206A401C2062DC
:1011B000B8F10108F2D22046FFF7CAF809B00320BF
:1011C000BDE8F08F206A2844206203E0D4E90121C1
:1011D000302090476D1EEBD3F8E70000872B00000E
:1011E00002FCFFFF10B5436913B1AFF3008001E0CB
:1011F000FFF754FB012010BD128800F12401828406
:101200000022C2840122EDE711684FF0FF32E9E7C6
:10121000007B00F08000704770B516460C4605460E
:1012200000F040F8036893F80101012806D0FF2C74
:101230000FD8185D68B101202C7070BDD3F807017C
:101240003246214603F2071303442846BDE87040A6
:1012500018474FF0FF3070BD754600F0E3F8AE461A
:1012600005006946534620F00700854618B020B5B2
:10127000FFF710F8BDE820404FF000064FF00007E0
:101280004FF000084FF0000B21F00701AC46ACE82E
:10129000C009ACE8C009ACE8C009ACE8C0098D469B
:1012A0007047000010B500F005F8001D10BD00BF2C
:1012B00041280000004870472C0F00202DE9F04124
:1012C0001F46044603260168072A01F4006004DB78
:1012D00008B116A505E016A503E008B115A500E0C4
:1012E00015A521F010002060A069C01EA0610FB1FB
:1012F000401EA0612046FFF715F84FB1D4E9012147
:1013000038469047206A401C2062C01C206206E0DC
:10131000206AFAE7D4E9012115F8010B9047761EFF
:10132000F8D22046FFF714F8BDE8F0814E414E0098
:101330006E616E00494E4600696E66002DE9F04709
:10134000814616468AB0334878440DC88DE80D00B2
:1013500030487844801C03AC0DC884E80D0041F689
:101360009B300844372190FBF1F290FBF1F5A5F199
:10137000800501FB12041B3C02D56442012000E001
:101380000020DFF890A080460027FA44AAF1BE0AA8
:101390000DE0E00709D03246684607EB47010AEB4B
:1013A000810100F008FB8DE8070064107F1C002C11
:1013B000EFD1184F7F44AC3F18E0E80714D007EB9B
:1013C00004100DF1180A90E80E008AE80E00C068BB
:1013D000F04201D198190890324606A903A800F0FE
:1013E000EAFA03AB83E807006D10641C002DE4D11A
:1013F00032466946B8F1000F03A802D000F0C7FAE0
:1014000001E000F0D8FAC9E90001C9F808200AB0E3
:10141000BDE8F087C02800000446AFF300802046F6
:10142000FEF723FF004870470C0F00204FF0013CEF
:1014300050F8042B51F8043B9A4221D1A2EB0C0343
:10144000934313EACC1317D150F8042B51F8043B03
:101450009A4215D1A2EB0C03934313EACC130BD1A0
:1014600050F8042B51F8043B9A4209D1A2EB0C032B
:10147000934313EACC13DBD04FF00000704700BF5A
:10148000D01A01BAB1FA81F101F0180122FA01F083
:10149000CB40C1F12001DBB2C0B2C01A2CFA01F37B
:1014A000D11A914311EAC311E6D170475FEA400CAB
:1014B00008BF91F0000F4FEA8C234FEAC12243EAA4
:1014C00051514FEA1C5018BF00F5F0404FEA300070
:1014D00018BF41F000415FEA6C5C00F02980BCF16C
:1014E000FF3F08BF40F080407047130C06BF120456
:1014F0004FF0100C4FF0000C130E04BF12020CF151
:10150000080C130F04BF12010CF1040C930F04BF5D
:1015100092000CF1020CD30F04BF52000CF1010C2D
:1015200011464FF00002A0F11F00A0EB0C00704725
:1015300011F0004F08BF704731F000413FF4D5AFC4
:101540000B0C06BF09044FF0100C4FF0000C0B0EF3
:1015500004BF09020CF1080C0B0F04BF09010CF1C8
:10156000040C8B0F04BF89000CF1020CCB0F04BFDD
:1015700049000CF1010CCCF12003A0EB0C0022FA85
:1015800003F302FA0CF241EA030100F10100704793
:1015900020F07F4C80EA030023F07F47ACEB070389
:1015A00003F57C5300F0004003F1FF032DE980496F
:1015B0004FEA154B09B44FEA144325EA0B4E24EACF
:1015C00003480FF2042606EB132749083E785FEA2A
:1015D000320203FB0667C7F5000707FB06F64FEA72
:1015E00054374FEAD64606F1020607FB066CCCF1EB
:1015F000005C4FEA1C472CEA074C07FB06F40CFB87
:1016000006F504EB15464FEA961634BF00204FF05E
:1016100000404FEAD13706FB07FC4FEA1C4C0CFB9D
:101620000BF7D21B03FB0CF761EB07010CFB0EF76A
:10163000B0EB074072EB17420CFB08F734BFA2EB8C
:101640000742B2EB074261EB17414FEA0C444FEA05
:10165000910706FB07FC4FEA1C4C0CFB0BF7B0EBA9
:10166000C74072EB573203FB0CF734BFA2EBC74203
:10167000B2EBC74261EB57310CFB0EF7B0EBC70082
:1016800072EB57720CFB08F734BFA2EBC702B2EB48
:10169000C70261EB5771039F4FEA816141EA9211E2
:1016A00004EBCC044FEAD1374FEA826206FB07FC19
:1016B00042EA90124FEA80604FEA1C4C0CFB0BF799
:1016C000D21B03FB0CF761EB07010CFB0EF7B0EB31
:1016D000074072EB17420CFB08F734BFA2EB07423E
:1016E000B2EB074261EB17414FEA8C554FEA910785
:1016F00004EB9C2406FB07FC4FEA1C4C0CFB0BF78D
:10170000B0EBC74072EB573203FB0CF734BFA2EBD0
:10171000C742B2EBC74261EB57310CFB0EF7B0EB9F
:10172000C70072EB57720CFB08F734BFA2EBC7027D
:10173000B2EBC70261EB577115EB4C254FEA8161A3
:1017400041EA92114FEA82624FEAD13742EA90129F
:1017500006FB07FC44F100044FEA80604FEA1C4C92
:101760000CFB0BF7D21B03FB0CF761EB07010CFB27
:101770000EF7B0EB074072EB17420CFB08F734BFD3
:10178000A2EB0742B2EB074261EB174115EB1C15C8
:101790004FEA813141EA92414FEA823242EA904275
:1017A0004FEA80304FEA0C7644F1000448EA0343E4
:1017B0004EEA0B484FF0000EB2EB080C71EB03073A
:1017C00024BF624639464EEB0E0E4FF0000B001858
:1017D000524149414BEB0B0BB2EB080C71EB030789
:1017E0007BF1000B24BF624639464EEB0E0E4FF0E4
:1017F000000B0018524149414BEB0B0BB2EB080CAC
:1018000071EB03077BF1000B24BF624639464EEBB8
:101810000E0E51EA020718BF46F0010616EB0E76CF
:1018200055F1000254F1000103D5BDE88901BDE87E
:101830000088BDE88901BDE80048B619524141EB76
:101840000101A3F10103704780807F7E7D7C7B7A5C
:101850007978777676757473727171706F6E6E6D5C
:101860006C6C6B6A6A696868676666656464636302
:1018700062616160605F5F5E5E5D5D5C5C5B5B5A88
:101880005A595958585757565655555554545353F5
:1018900052525251515050504F4F4F4E4E4D4D4D50
:1018A0004C4C4C4B4B4B4A4A4A494949484848479B
:1018B00047474746464645454544444444434343D9
:1018C0004342424242414141002B26D4770021D07D
:1018D0001CB54FEA370703B44FF010004FF010016A
:1018E0004FF000000FBCBDE810400BF1010BBBF145
:1018F000010F08BF5FEA170722BF12F1010211F1C1
:1019000001014FF0004143F1000300F0004043EAC1
:1019100000007047F9D35708DAE746EA064613F1A4
:10192000400F4FEA16461FDD13F1200FDFBF1643AD
:101930000A46002120335B42C8D0C3F1200746EAA3
:10194000064602FA07F74FEA164646EA0706C3F1CB
:10195000200722FA03F201FA07F721FA03F14FF008
:10196000000342EA0702B1E746EA020646EA0646F3
:101970004FEA164646EA0106BCBF46EA0646360C62
:101980004FF000034FF000024FF000019EE72DE9F9
:10199000C048934630B491E8380007C831EA400C9B
:1019A00048BF34EA430C03D5FFF7F2FDFFF78CFF85
:1019B000F0BCBDE800882DE9C048934630B491E8FA
:1019C000380007C810F0804F08BF13F0804F03D1D4
:1019D00000F005F8FFF778FFF0BCBDE8008820F0C4
:1019E0007F4780EA030023F07F4C07EB0C03A3F54D
:1019F0007C5300F00040A3F1FE0392F0000F00F0D2
:101A0000B38095F0000F00F077802DE901494FEA8F
:101A100011404FEA144621EA004800FB06FC24EA84
:101A2000064708FB06F607FB08F800FB07F718EB6C
:101A300006484CEB164C4FEA124B18EB07484FEA9E
:101A400015464CEB174022EA0B4E0BFB06FC25EA31
:101A500006470EFB06F607FB0EFE0BFB07F71EEB19
:101A6000064E4CEB164C4FF000061EEB074E4CEBAF
:101A7000174B18EB0B0840F1000018EB0E0B58EB5E
:101A8000000840F100008F1A4FF000013CBFC9432D
:101A9000661B14BFB5EB040C00213CBFC943F61B09
:101AA0004FEA17444EEA8E0E27EA04454FEA1C47D8
:101AB00004FB07622CEA074C05FB07F70CFB05F655
:101AC00004FB0CFC16EB074642EB174216EB0C46E8
:101AD00042EB1C421BEB060658EB0202414146EA70
:101AE0009E0601D5BDE80189B619524141EB0101BD
:101AF000A3F10103BDE801894FEA14454FEA1147FC
:101B000024EA054621EA074C05FB07F406FB07F724
:101B10000CFB06F105FB0CFC11EB074144EB1744F1
:101B20004FEA124711EB0C4144EB1C4422EA074CEC
:101B300005FB07F206FB07F70CFB06F605FB0CFCA2
:101B400016EB074642EB174216EB0C4642EB1C45E0
:101B50006A1854F1000148BF7047B619524141EB71
:101B60000101A3F10103704795F0000F37D04FEA50
:101B700011424FEA144721EA024624EA074C02FBCD
:101B800007F106FB07F70CFB06F402FB0CFC14EB59
:101B9000074441EB17414FEA154714EB0C4441EB66
:101BA0001C4125EA074C02FB07F506FB07F70CFB77
:101BB00006F602FB0CFC16EB074645EB174516EB49
:101BC0000C4645EB1C42121951F1000148BF704709
:101BD000B619524141EB0101A3F1010370474FEAED
:101BE00014454FEA114724EA054621EA074C05FB54
:101BF00007F106FB07F70CFB06F24FF0000605FBAA
:101C00000CFC12EB074241EB174112EB0C4251EB7B
:101C10001C4148BF7047921841EB0101A3F1010339
:101C20007047000010B504462CB900200E49887199
:101C30000E49C8700FE0012C03D108200A494871F1
:101C400004E0022C02D10C2007494871012006490A
:101C500088710649C87006480470034800F0B6FA57
:101C6000024800F0F1FD10BDC0000020C8000020B7
:101C7000CD00002000BFFEE77047000010B54FF414
:101C8000E13001F05DFD10E001F0F2FAC82228A178
:101C900028A001F025FB2BA0FEF722FB4FF4487093
:101CA00001F074FB2EA0FEF71BFB142220A131A033
:101CB00001F016FB0028E7D1012001F083FA00BFF4
:101CC00032221BA12CA001F00BFB0028F8D100BF91
:101CD000142217A12BA001F003FB0028F8D14FF428
:101CE0007A7001F053FB012001F06CFA08E027A0A4
:101CF000FEF7F6FA642001F049FB2AA0FEF7F0FA9D
:101D00004FF496730AA22E4801682E48006800F02E
:101D1000BFF90028EBD14FF47A7001F037FB00BF18
:101D2000642203A128A001F0DBFA0028F8D110BD3D
:101D30004F4B000041542B4349504D4F44453D30DB
:101D40000000000065737038323636206861736EAB
:101D50002774206465746563746564210A0000005B
:101D600074727920415420616761696E2E2E2E0AAB
:101D7000000000004154000041542B43574D4F4494
:101D8000453D310041542B5253540000636F6E6E39
:101D90006563742077696669206661696C65642192
:101DA0000A00000074727920636F6E6E65637420A0
:101DB0007769666920616761696E2E2E2E0A0000C0
:101DC000A00000209C00002041542B4349504D5559
:101DD000583D300070B504460D460DE029A0FEF7D1
:101DE0007FFA64222DA12EA001F07AFA642001F07E
:101DF000CDFA2EA0FEF774FAC82330A2314801684C
:101E00003148006800F0A8F80028E7D100BF32226E
:101E100022A12EA001F064FA0028F8D100BF3222DE
:101E20002EA12FA001F05CFA0028F8D109E02FA024
:101E3000FEF756FA4FF4FA7001F0A8FA31A0FEF757
:101E40004FFA642337A22946204600F0C7F800283D
:101E5000EDD1012001F0B6F936A0FEF741FA00BF3E
:101E600001F006FA0028FBD1C8220CA136A001F02F
:101E700037FA642209A10AA001F032FA012001F028
:101E8000A1F970BD636F6E6E65637420544350207A
:101E90006661696C6564210A000000004F4B000018
:101EA00041542B434950434C4F53450074727920A1
:101EB00054435020616761696E0A0000434F4E4EE3
:101EC00045435400A8000020A400002041542B43A7
:101ED00049504D4F44453D31000000003E00000098
:101EE00041542B43495053454E44000073656E6482
:101EF00020687474702064617461206661696C6527
:101F000064210A0073656E642068747470206461D3
:101F100074612074727920616761696E2E2E2E0AB9
:101F200000000000485454502F312E312032303000
:101F3000204F4B0073656E64206874747020737555
:101F40006363657373210A0041542B4349504D4F1D
:101F500044453D30000000002DE9F04106460F46A3
:101F600015461C464FF000080020144908803A46E8
:101F7000314613A001F0BCFBE5B1DCB112E0142046
:101F800001F004FA0D48008800F4004050B12846E2
:101F900001F054F918B1012001F014F906E0012014
:101FA00001F010F9601E80B20400E8D100BF0CB946
:101FB0004FF001084046BDE8F081000052000020CB
:101FC00041542B43495053544152543D22544350A1
:101FD000222C222573222C25730D0A002DE9F047AF
:101FE00007460D4616461C464FF00008C146002025
:101FF0001D4908803846FEF741FB82462846FEF719
:102000003DFB5044143000F0FF0918A0FEF768F9BA
:1020100000F01EFA2B463A464946194801F068FB83
:1020200000F018FAEEB1E4B110E0142001F0AEF9BE
:10203000304601F003F930B112A0FEF751F901204A
:1020400001F0C0F806E0012001F0BCF8601E80B28B
:102050000400EAD100BF24B94FF001080020024972
:1020600008804046BDE8F0875200002073656E642A
:10207000206874747020646174612E0A000000008E
:10208000443C0008636865636B206F6B210A0000A5
:102090002DE9F04106460F4615461C464FF0000854
:1020A0000020144908803A46314613A001F020FB75
:1020B000E5B1DCB112E0142001F068F90D480088A8
:1020C00000F4004050B1284601F0B8F818B10120E2
:1020D00001F078F806E0012001F074F8601E80B28B
:1020E0000400E8D100BF0CB94FF001084046BDE83C
:1020F000F08100005200002041542B43574A4150C8
:102100003D222573222C222573220D0A0000000097
:1021100010B5402000F046F8002833D01A48007867
:1021200001280DD119480078012802D10020184952
:1021300008800220144908700020164908601AE03F
:1021400011480078022816D110480078012806D1DD
:102150000F48008840F400400D49088006E00B4815
:102160000078022802D101200849087001200649A0
:1021700008700849086004480078FFF753FD4020C4
:1021800000F00AF810BD0000CD000020CC000020B7
:1021900058000020B4012242014908607047000045
:1021A00014040140014600200022074B1B6803EA8B
:1021B0000102054B14331B680B4013B10AB1012017
:1021C00000E0002070470000000401400021234986
:1021D0008279002A3AD00A46126803689A430B466D
:1021E0001A600A1D126803689A430B1D1A6002796F
:1021F00011440A6803681A430A60184A08321268D0
:1022000003689A43154B08331A601A1D1268036855
:102210009A43124B0C331A604279102A0ED11A1FBE
:10222000126803681A430D4B08331A601A1D1268AE
:1022300003681A43094B0C331A600DE007494279D1
:1022400011440A6803681A430A6005E002791144E0
:102250000A6803689A430A6070470000000401405E
:1022600030B500228B071C0F0F2303FA04F20B4B2F
:102270008C1053F824309343084C8D1044F82530CB
:1022800023468C1053F824308C07240F00FA04F4F2
:102290002343024C8D1044F8253030BD0800014026
:1022A0002DE9F041024600250026002000230024ED
:1022B000002791F803C00CF00F0591F803C00CF053
:1022C000100CBCF1000F03D091F802C04CEA0505D8
:1022D00091F800C0BCF1000F31D0146800202BE051
:1022E0004FF0010C0CFA00F3B1F800C00CEA030641
:1022F0009E4220D183004FF00F0C0CFA03F7BC4331
:1023000005FA03FC4CEA040491F803C0BCF1280F61
:1023100006D14FF0010C0CFA00FCC2F814C00AE020
:1023200091F803C0BCF1480F05D14FF0010C0CFA35
:1023300000FCC2F810C0401C0828D1D31460B1F8CA
:1023400000C0BCF1FF0F34DD546800202EE000F126
:10235000080C4FF0010808FA0CF3B1F800C00CEAC1
:1023600003069E4221D183004FF00F0C0CFA03F7B5
:10237000BC4305FA03FC4CEA040491F803C0BCF129
:10238000280F05D100F1080C08FA0CF8C2F81480E7
:1023900091F803C0BCF1480F07D100F1080C4FF0D1
:1023A000010808FA0CF8C2F81080401C0828CED3A7
:1023B0005460BDE8F0810000F0B50A460023002417
:1023C0000021002500F00046B6F1004F02D11D4E5D
:1023D000F16901E01B4E7168C0F3034583B200F45C
:1023E0004016B6F5401F08D121F07061154E766891
:1023F00026F07066134F7E6012E000F48016B6F58A
:10240000801F06D1032606FA05F4A14341F070614E
:1024100006E0460D360103FA06F6B14341F070615D
:1024200022B1460D360103FA06F6314300F00046AC
:10243000B6F1004F02D1034EF16101E0014E71602F
:10244000F0BD0000000001400161704700BFFEE7E1
:1024500072B6704762B6704708B50121102000F0CF
:1024600057FA4FF40050ADF8000010208DF803002B
:1024700003208DF8020069460448FFF711FF4FF46E
:1024800000510248FFF7E0FF08BD000000100140C6
:1024900038B503240121052000F03AFA8020ADF878
:1024A000000010208DF8030003208DF8020069461B
:1024B0002E48FFF7F5FE4020ADF8000028208DF8EB
:1024C000030003208DF8020069462848FFF7E8FE64
:1024D00006210020FFF7C4FE4020254908600020A7
:1024E000087108204871002088710846FFF76EFEC9
:1024F00017202049087002204870032088700020AF
:10250000C870084600F0A0F900201B4908601B496C
:10251000C1F8180106E01AA0FDF7E2FE4FF4FA70C8
:1025200000F034FF1448843800680028F3D14FF4D9
:10253000E13001F0E7F901200F490860282000F0A0
:1025400025FF0BE0214612A0FDF7CAFE462213A18B
:1025500013A000F0BBFF08B9002038BD2000A4F193
:102560000101CCB2EED10120F7E7000000080140E4
:10257000C0000020C80000209C0121420000214230
:102580006C6F72612069732062757379210A000093
:1025900072657472793D25640A0000004F4B00009B
:1025A000415400002DE9F04391B006460F46904695
:1025B0009946189D202109A8FEF77FF8202101A83F
:1025C000FEF77BF8002400BF274800680028FBD1F5
:1025D0000220264908702648C07940B925A109A8DB
:1025E000FDF78AFE09A928A001F05AF839E0204831
:1025F000C079012835D18DF804608DF805708DF80B
:102600000680002406E019F80410E01C01AA115409
:10261000601C84B2AC42F6DB00240DE000BF402118
:102620001B4800F0DFFC0028F9D001A8015D184824
:1026300000F0A5FD601C84B2E81C8442EEDB15A00E
:10264000FDF74EFE002406E001A8015D14A0FDF791
:1026500047FE601C84B2E81C8442F5DB11A0FDF744
:102660003FFE11B0BDE8F08318012142CC000020EC
:10267000B400002041544B2D4C4F52412D3031209D
:10268000544553540000000025730D0A000000005B
:102690000044004073656E64646174613D20000015
:1026A000257820000A00000030B585B00025002103
:1026B000072001F0A5F9012001F086F900BF3E488E
:1026C00000680028FBD101203B49843108602820A4
:1026D00000F05CFE00203949087039480088040A7F
:1026E000374805782B46224636A16846FDF704FE9A
:1026F000322239A1684600F0E9FE31480379827838
:1027000036A16846FDF7F8FD322233A1684600F095
:10271000DDFE2B48C27835A16846FDF7EDFD32227B
:102720002DA1684600F0D2FE2548827933A1684683
:10273000FDF7E2FD322228A1684600F0C7FE2048DE
:10274000C27932A16846FDF7D7FD322222A1684640
:1027500000F0BCFE1A4842792FA16846FDF7CCFD77
:1027600032221DA1684600F0B1FE1548437A027A74
:102770002DA16846FDF7C0FD322217A1684600F082
:10278000A5FE00202C49C1F89C01282000F0FEFD88
:1027900000BF094800680028FBD1284908800120B3
:1027A00006490870064A517A107A01F029F9012089
:1027B000FFF738FA05B030BD18012142CC000020E7
:1027C000B400002041542B414444523D253032781E
:1027D0002C253032780000004F4B000041542B571D
:1027E0004C524154453D25642C25640041542B54E2
:1027F000504F5745523D25640000000041542B4383
:10280000574D4F44453D25640000000041542B5472
:102810004D4F44453D25640041542B574C54494D80
:10282000453D25640000000041542B554152543D64
:1028300025642C256400000000002142580000207F
:1028400000BFFEE77047000070B5002100230F2293
:10285000C47804B3154C246804F4E064C4F5E0645F
:10286000210AC1F10403CA40447804FA03F18478D0
:102870001440214309010E4C0678A155047804F058
:102880001F050124AC4005786D11AD0005F1E02570
:10289000C5F8004109E0047804F01F050124AC40AC
:1028A000044D0678761145F8264070BD0CED00E029
:1028B00000E400E080E100E002490143024A1160C7
:1028C000704700000000FA050CED00E070470000C2
:1028D00029B1064AD2690243044BDA6104E0034A93
:1028E000D2698243014BDA61704700000010024058
:1028F00029B1064A12690243044B1A6104E0034AF3
:1029000012698243014B1A617047000000100240B7
:1029100029B1064A92690243044B9A6104E0034AD2
:1029200092698243014B9A61704700000010024097
:1029300029B1064AD2680243044BDA6004E0034A34
:10294000D2688243014BDA607047000000100240F9
:1029500030B500210022002400232D4D6D6805F0C4
:102960000C0121B1042905D0082923D105E0294D06
:10297000056022E0274D05601FE0254D6D6805F4D8
:102980007012234D6D6805F48034022505EB9242E8
:102990001CB9214D554305600BE01D4D6D6805F4D4
:1029A00000351DB11C4D5543056002E0194D5543DE
:1029B000056002E0174D056000BF00BF144D6D6853
:1029C00005F0F0010909154D6B5C0568DD404560B7
:1029D0000F4D6D6805F4E061090A104D6B5C4568A8
:1029E000DD4085600A4D6D6805F46051C90A0B4DE4
:1029F0006B5C4568DD40C560054D6D6805F4404180
:102A0000890B074D6B5CC568B5FBF3F5056130BDFF
:102A10000010024000127A0000093D00340000203E
:102A200044000020704710B500F002F810BD00000F
:102A30000CB50020019000903348006840F48030CD
:102A40003149086000BF3048006800F40030009051
:102A50000198401C0190009818B90198B0F5A06F3A
:102A6000F1D12948006800F4003010B10120009035
:102A700001E0002000900098012843D1234800681D
:102A800040F01000214908600846006820F003006B
:102A900008600846006840F0020008601A48406874
:102AA000194948600846406848600846406840F454
:102AB000806048600846406820F47C104860084602
:102AC000406840F4E81048600846006840F08070B4
:102AD000086000BF0C48006800F000700028F9D0C2
:102AE0000948406820F003000749486008464068EC
:102AF00040F00200486000BF0348406800F00C004E
:102B00000828F9D10CBD000000100240002002404E
:102B1000042808D14FF0E021096941F004014FF089
:102B2000E022116107E04FF0E021096921F0040182
:102B30004FF0E022116170477047000010B5134854
:102B4000006840F0010011490860084640681049DB
:102B500008400E494860084600680E4908400B4985
:102B600008600846006820F4802008600846406835
:102B700020F4FE0048604FF41F008860FFF753FF09
:102B80004FF000600449086010BD000000100240D2
:102B90000000FFF8FFFFF6FE08ED00E010B5012190
:102BA000094800F09EF868B10121074800F08AF852
:102BB0000648008840F4004004490880002102488B
:102BC00000F083F810BD000000080040580000200D
:102BD0007FB505460C4601210420FFF779FEADF8CC
:102BE0000850ADF804400020ADF80A00ADF806002A
:102BF00001A90E4800F092F8012211460B4800F09E
:102C000081F81E208DF8000000208DF801000220C0
:102C10008DF8020001208DF803006846FFF714FECE
:102C20000121024800F051F87FBD0000000800407B
:102C300010B50121094800F054F868B1084800882F
:102C400040F40040064908800121044800F03AF8A9
:102C50000021024800F039F810BD000000140040C7
:102C6000520000207FB505460C4601212020FFF7C9
:102C70002FFEADF80450ADF800400020ADF806007E
:102C8000ADF8020069460E4800F048F801221146EE
:102C90000B4800F037F80121094800F016F83720FA
:102CA0008DF80C0000208DF80D0002208DF80E002C
:102CB00001208DF80F0003A8FFF7C6FD7FBD0000BF
:102CC00000140040CA430282704721B1028842F0DA
:102CD0000102028004E002884FF6FE731A4002806F
:102CE000704730B50246002000230024158A05EA0B
:102CF0000103958905EA010413B10CB1012000E03C
:102D0000002030BD1AB183890B43838102E083899F
:102D10008B438381704781847047000000220288C2
:102D20001D4B98420ED01D4B98420BD0B0F1804FF6
:102D300008D01B4B984205D01A4B984202D01A4B30
:102D4000984204D14FF68F731A404B881A43174BA1
:102D5000984207D0164B984204D04FF6FF431A40D2
:102D6000CB881A4302808B8883850B8803850A4BA6
:102D700098420BD0094B984208D00E4B984205D090
:102D80000D4B984202D00D4B984201D10B7A03862D
:102D90000123838270470000002C01400034014071
:102DA0000004004000080040000C004000100040FB
:102DB0000014004000400140004401400048014030
:102DC00010B540F225511D4800F019F910B31B4809
:102DD00000F0D0F9C4B21A48008800F40040C8B925
:102DE0001748008800F4804060B10A2C03D000200E
:102DF0001349088020E01248008840F40040104940
:102E0000088019E00D2C06D10D48008840F4804060
:102E10000B49088010E00A480088C0F30D000949FA
:102E20000C5407480088401C054908800846008863
:102E3000C72801DD0020088010BD000000380140D7
:102E400050000020D400002010B540F22551174852
:102E500000F0D5F810B3154800F08CF9C4B214484E
:102E6000008800F40040C8B911480088B0F5806FB0
:102E700015DA1048007850B900210F48FFF74BFFD2
:102E80000B48008818B901210B48FFF71EFF0849BD
:102E90000888411C064A118008490C5405E0044882
:102EA000008840F400400249088010BD0044004002
:102EB00058000020CC00002000080040A40800209A
:102EC00010B540F22551164800F099F800B31448A7
:102ED00000F050F9C4B21348008800F40040B8B9BB
:102EE00010480088B0F5167F13DA00210E48FFF76E
:102EF00012FF0C48008818B901210B48FFF7E5FEC6
:102F0000084801880088401C064A1080074844543D
:102F100005E00448008840F400400249088010BDE4
:102F20000048004052000020001400409C01002096
:102F300021B1828942F40052828104E082894DF6F7
:102F4000FF731A408281704710B5044620488442BE
:102F500009D101218803FFF7EBFC00214FF48040E9
:102F6000FFF7E6FC32E01B48844209D10121480406
:102F7000FFF7BEFC00214FF40030FFF7B9FC25E05D
:102F80001548844209D101218804FFF7B1FC0021D2
:102F90004FF48020FFF7ACFC18E01048844209D1C0
:102FA0000121C804FFF7A4FC00214FF40020FFF723
:102FB0009FFC0BE00A48844208D101210805FFF775
:102FC00097FC00214FF48010FFF792FC10BD000029
:102FD000003801400044004000480040004C0040E0
:102FE0000050004002460020B1F5007F00D100BF34
:102FF00013880B400BB1012000E00020704770B532
:103000000246002400230025002040F66A16B14243
:1030100000D100BFC1F3421501F01F03012606FADB
:1030200003F3012D02D19689334006E0022D02D12F
:10303000168A334001E0968A33400C12012606FAC4
:1030400004F41688344013B10CB1012000E00020D4
:1030500070BDF0B50346002400260025002040F690
:103060006A17B94200D100BF1846C1F3421401F0FB
:103070001F06012707FA06F5012C01D10C3004E0E8
:10308000022C01D1103000E014301AB107682F4330
:10309000076002E00768AF430760F0BD2DE9F04725
:1030A00086B005460E460024A24600BFA146002772
:1030B000B08900B100BF2F462C8A4CF6FF70044047
:1030C000F08804432C82AC894EF6F3100440B0889B
:1030D00031890843718908430443AC81AC8A4FF6B7
:1030E000FF400440B0890443AC8201A8FFF730FCE4
:1030F0001F48874202D1DDF810A001E0DDF80CA0E6
:10310000A88900F4004040B10AEBCA0000EB0A10A5
:1031100031684900B0FBF1F807E00AEBCA0000EBA8
:103120000A1031688900B0FBF1F86420B8FBF0F0B8
:1031300004012009642101FB1089A88900F40040E2
:1031400040B1322000EBC900B0FBF1F000F0070005
:10315000044308E0322000EB09106421B0FBF1F0D9
:1031600000F00F0004432C8106B0BDE8F08700009A
:103170000038014001468888C0F308007047C1F359
:1031800008028280704700BFFEE7490050EAC12074
:1031900018BF04204A0D18BF40F0010040F2FF7232
:1031A000B2EB515F08BF40F00200012808BF0520C4
:1031B000704730380A2801D201207047002070473C
:1031C00000BF704710B504460D48008800F4004069
:1031D000A0B10CA0FDF784F8002009490988C1F3CB
:1031E0000E010D4A505411460CA0FDF779F80CA0C1
:1031F000FDF776F814B100200149088010BD0000E9
:10320000520000202D2D2D2D2D657370383236364D
:103210002D2D2D2D2D0A00009C010020257300006E
:103220003D3D3D3D3D3D3D3D3D3D3D3D3D3D3D3DCE
:103230003D3D3D3D656E640A0000000070B50446EA
:1032400000250948008800F4004058B100200649D4
:103250000988C1F30E01054A505421461046FDF776
:10326000FBF90546284670BD520000209C01002055
:1032700010B500BF1748008800F040000028F9D0C2
:103280002B201449091D08800F2000F07FF800BF93
:103290001048008800F040000028F9D02B200D498C
:1032A000091D08800F2000F071F800BF0948008850
:1032B00000F040000028F9D02B200649091D0880A5
:1032C0004FF4FA7000F062F8142203A103A000F09A
:1032D00007F810BD004800404F4B0000415400006B
:1032E0002DE9F04106460D461446002700201349FB
:1032F0000880314612A000F0FBF9DDB1D4B112E034
:10330000142000F043F80D48008800F4004050B14C
:103310002846FFF793FF18B10120FFF753FF06E09F
:103320000120FFF74FFF601E80B20400E8D100BF0C
:1033300004B901273846BDE8F081000052000020A2
:1033400025730D0A0000000010B56FF00400FFF7B0
:10335000DFFB0A4800680A49B0FBF1F00949087030
:103360000846007800EB4001C1EBC0104FF6FF713A
:1033700001EAC0000449088010BD000020000020C0
:1033800000127A00480000204A0000200146114A3D
:1033900012884A434FF0E0235A6100229A611A468C
:1033A000126942F001021A6100BF4FF0E022106979
:1033B00000F001021AB100F48032002AF5D04FF07B
:1033C000E022126922F001024FF0E0231A6100228C
:1033D0009A6170474A00002000BF054A128802F037
:1033E0004002002AF9D0C2B2014B1B1D1A8070475F
:1033F0000038014008B506E00CA0FCF771FF4FF45F
:103400009670FFF7C3FFFFF743F80028F4D10CA034
:10341000FCF766FFFFF748F905200D4B1722012145
:1034200000900020FFF7BEF808BD00004C6F52610D
:1034300020756E64657465637465642E2E2E0A00B3
:103440004C6F5261206465746563746564210A0081
:10345000CE00002070B5044600250E48008800F418
:103460000040A8B10CA0FCF73BFF0F490FA0FCF7F0
:1034700037FF0FA0FCF734FF002006490988C1F38D
:103480000E01094A505421461046FDF7E5F805465D
:10349000284670BD580000202D2D2D2D2D6C6F72EB
:1034A000612D2D2D2D2D0A00A4080020257300006C
:1034B0003D3D3D3D3D3D3D3D3D3D3D3D3D3D3D3D3C
:1034C0003D3D3D3D656E640A000000002DE9F04180
:1034D00004460E4615460027002018490880FF2C98
:1034E0000AD800BF1648008800F040000028F9D034
:1034F0001349091D0C8003E0214612A000F0D0F80A
:10350000C6B1BDB10FE00A20FFF740FF0B480088AD
:1035100000F4004038B13046FFF79CFF00B106E0F0
:10352000002006490880681E80B20500EBD100BF6C
:1035300005B901273846BDE8F08100005800002099
:103540000044004025730D0A00000000C4B03FA1F4
:1035500003C9CDE9020105263EA700BFFFF7F4FE2F
:103560003002FFF7A9F94FF4E13000F077F9FEF7E8
:1035700073FFFEF783FBFFF73DFF37A0FCF7B0FEBC
:1035800063E06420FFF702FF3848018838A0FCF7A9
:10359000A7FE3648008800F40040002855D039A026
:1035A000FCF79EFE00240AE03A48015D3AA0FCF7D1
:1035B00097FE3848005D04A90855601CC4B22B482A
:1035C0000088C0F30E00A042EEDC2DA0FCF788FEC0
:1035D0009DF81000802835D19DF81100072831D1C1
:1035E0009DF8120011282DD19DF81A00812829D1AB
:1035F0000124002505E004A8005D2844C5B2601C34
:10360000C4B2092CF7DB9DF81900A84215D164203B
:10361000FFF7BCFE02AB1722012100200096FEF747
:10362000C1FF9DF817001D4A02EB00109DF81820FD
:1036300050F822103846FEF7CDFB4FF4807104A8F5
:10364000FDF73BF80020094908809AE780015051B6
:10365000810000003130310073746172742077682A
:10366000696C65283129210A0000000058000020FB
:103670005553415254325F52585F5354413D25785F
:103680000A00000064617461207265636569766593
:103690003D200000A4080020257820000000002024
:1036A0000FB438B505A800900F48009A0499FCF7AC
:1036B00005FE002000900C48FCF7E0FF85B20024D6
:1036C0000DE000BF40210948FFF78CFC0028F9D02D
:1036D0000548015D0548FFF752FD601C84B2AC420D
:1036E000EFDB38BC5DF814FBA40C00200044004064
:1036F0000FB438B505A800900F48009A0499FCF75C
:10370000DDFD002000900C48FCF7B8FF85B20024D6
:103710000DE000BF40210948FFF764FC0028F9D004
:103720000548015D0548FFF72AFD601C84B2AC42E4
:10373000EFDB38BC5DF814FB4C060020004800406D
:1037400010B586B0044601210D20FFF7E1F80121F4
:103750008804FFF7BDF84FF48060ADF81400032033
:103760008DF8160018208DF8170005A93548FEF7CA
:1037700097FD4FF40060ADF8140004208DF8170099
:1037800005A93048FEF78CFD01212F48FEF714FEF5
:103790004FF40040ADF8140010208DF817000320FE
:1037A0008DF8160005A92948FEF77AFD4FF400416F
:1037B0002648FEF749FE1020ADF814008DF81700DA
:1037C00003208DF8160005A92048FEF769FD102199
:1037D0001E48FEF739FE01940020ADF80800ADF850
:1037E0000A00ADF80C00ADF810000C20ADF80E008A
:1037F00001A91748FFF752FC01211548FFF798FB74
:10380000012240F225511248FFF723FC27208DF8B2
:10381000000002208DF801008DF8020001208DF8D3
:1038200003006846FFF710F841F61F41C720FFF775
:1038300019FA00200749088000210748FFF745FAD8
:1038400006B010BD000C014000023000000801402D
:1038500000480040520000200014004010B586B01F
:103860000446012144F20400FFF752F84FF40070BF
:10387000ADF8140003208DF8160018208DF81700FD
:1038800005A91E48FEF70CFD4FF48060ADF814004A
:1038900004208DF8170005A91848FEF701FD4FF424
:1038A000A060FFF709F825208DF8000003208DF8AF
:1038B00001008DF8020001208DF803006846FEF734
:1038C000C3FF01940020ADF80800ADF80A00ADF880
:1038D0000C00ADF810000C20ADF80E0001A908484E
:1038E000FFF7DCFB012240F225510548FFF7B1FB51
:1038F00001210348FFF71CFB06B010BD0008014082
:10390000003801401CB5044601210820FFF700F8EB
:1039100001214804FEF7DCFF2648FFF715FB0420D1
:10392000ADF8000003208DF8020018208DF8030088
:1039300069462148FEF7B4FC0820ADF800000420D9
:103940008DF8030069461C48FEF7AAFC1B4804607A
:1039500000201A498880C880088188810C2048810D
:103960001448FFF79BFB01211248FFF7E1FA0122FF
:1039700040F225510F48FFF76CFB26208DF804001C
:1039800002208DF8050003208DF8060001208DF837
:10399000070001A8FEF758FF41F61F416320FFF71B
:1039A00017F900200649088000210648FFF78DF925
:1039B0001CBD00000044004000080140FC0E002037
:1039C000580000200008004010B5044600210A48B5
:1039D000FFF7AEFA1CB10C200849488102E008202C
:1039E0000649488105490448FFF758FB0121024870
:1039F000FFF79EFA10BD000000440040FC0E0020BE
:103A000070B505460C46082D2DD2DFE805F00409F7
:103A10000E13181D22274FF496602749086022E0F4
:103A20004FF41660244908601DE04FF49650224977
:103A3000086018E04FF416501F49086013E04FF477
:103A400096401D4908600EE04FF416401A49086080
:103A500009E04FF461401849086004E04FF4E13098
:103A60001549086000BF00BF00211448FFF760FA45
:103A700011480068124908600020C88014B9888085
:103A800008810FE0012C05D120030D4988808010AA
:103A9000088107E0022C05D1E002094988804FF433
:103AA000C060088106490548FFF7F8FA012103487C
:103AB000FFF73EFA70BD00005C00002000440040AB
:103AC000FC0E002010B500290AD00878002807D085
:103AD00005487844FDF7AAFC002801D0002010BD5D
:103AE0000248784410BD0000960300008E030000D9
:103AF00010B500290AD00878002807D00548784476
:103B0000FDF794FC002801D0002010BD0248784445
:103B100010BD0000860300007E030000FDF7AEB874
:103B2000FDF7E2B930313233343536373839414276
:103B3000434445464030580030313233343536370F
:103B400038396162636465664030780004000008BB
:103B50000000000000000002000100001000000052
:103B600000000000000000003031323334353637B9
:103B7000383961626364656678700030313233349D
:103B800035363738394142434445465850000000E5
:103B900002400000000000A00000000005400000FE
:103BA000000000C8000000000C4000000000409C25
:103BB00000000000194000000020BCBE0000000012
:103BC00034400000BFC91B8E00000004B540000057
:103BD000504BCFD06607E2CF010000006C410000DF
:103BE0003E8251AADFEEA73401000000D942000056
:103BF000DCB5A0E23A301F97FFFFFFFFB44500009D
:103C0000FD25A0C8E9A3C14FFFFFFFFFFF3F000054
:103C10000000008000000000FF3F00000000008066
:103C200000000000410000004200000043000000CE
:103C3000440000004500000046000000470000006E
:103C400048000000504F5354202F746573742F7434
:103C50006573744C6F636174696F6E20485454507F
:103C60002F312E310D0A484F53543A203132302E25
:103C700037362E3231392E3139363A38350D0A4140
:103C800063636570743A20746578742F2A0D0A4155
:103C900063636570742D4C616E67756167653A206A
:103CA0007A682D636E0D0A557365722D4167656ED6
:103CB000743A204D6F7A696C6C612F352E3028571D
:103CC000696E646F77733B553B57696E646F7773AA
:103CD0004E54362E313B656E2D7573294170706CD4
:103CE000655765624B69742F3533342E3530284B58
:103CF00048544D4C2C6C696B654765636B6F295656
:103D0000657273696F6E2F352E315361666172690A
:103D10002F3533342E35300D0A436F6E74656E7453
:103D20002D547970653A206170706C6963617469B3
:103D30006F6E2F782D7777772D666F726D2D757278
:103D40006C656E636F6465640D0A436F6E74656EB7
:103D5000742D4C656E6774683A25640D0A0D0A70FF
:103D6000726F6475637449643D2573266C6F63617B
:103D700074696F6E3D25730D0A0000004150265393
:103D80005441C4A3CABD2000535441C4A3CABD209A
:103D9000000000004150C4A3CABD200031303100F2
:103DA00032323232333333330000000031353930B0
:103DB0003230323033353300383500003830383661
:103DC000000000003132302E37362E3231392E319C
:103DD00039360000414C49454E54454B0000000027
:103DE000575041325F50534B000000005750415F25
:103DF000574150325F50534B000000005750415F15
:103E000050534B004F50454E0000000057455000A6
:103E10007764792D36730000777061777061325F57
:103E2000616573002055445020C4A3CABD00000042
:103E3000544350BFCDBBA7B6CB000000544350B78E
:103E4000FECEF1C6F7000000943F000800000020FD
:103E5000D40000006C01000868400008D400002075
:103E60009C140000880100081C00000043000000B2
:103E7000F8FFFFFF0C0000000E0000000F00000024
:103E80002E0000001001000043000000F8FFFFFFBB
:103E9000004040404040404040404141414141405D
:103EA0004040404040404040404040404040404012
:103EB00040050202020202020202020202020202A1
:103EC00002202020202020202020200202020202A6
:103ED00002029090909090901010101010101010FE
:103EE000101010101010101010101010020202020A
:103EF000020288888888888808080808080808084E
:103F00000808080808080808080808080202020249
:103F10004000000000000000000000000000000061
:103F20000000000000000000000000000000000091
:103F30000000000000000000000000000000000081
:103F40000000000000000000000000000000000071
:103F50000000000000000000000000000000000061
:103F60000000000000000000000000000000000051
:103F70000000000000000000000000000000000041
:103F80000000000000000000000000000000000031
:103F900000000000243C0008283C00082C3C0008DD
:103FA000303C0008343C0008383C00083C3C000829
:103FB000403C000800A24A0400000000000000008D
:103FC00001020304060708090000000001020304BF
:103FD00001020304060708090204060800000000A5
:103FE00000000000000000000000000000000000D1
:103FF00000000000BC3D0008D43D0008183E000849
:10400000AC3D0008883D0008943D00087C3D000858
:104010003C3E0008303E0008243E0008043E0008F4
:104020000C3E0008FC3D0008E03D0008EC3D0008A7
:10403000103E0008A03D0008C43D0008B83D00083F
:104040009C3D0008243C0008EEEE1703050000012B
:10405000030000000000000000000000000000005D
:08406000000001020304050049
:0400000508000131BD
:00000001FF
